:020000040800F2
:1000000018080020CD010008091800087F16000814
:10001000C9160008AD030008052000080000000014
:100020000000000000000000000000008718000829
:10003000AF0300080000000085180008D919000867
:10004000E7010008E7010008E7010008E7010008F0
:10005000E7010008E7010008E7010008E7010008E0
:10006000E7010008E7010008E7010008E7010008D0
:10007000E7010008E7010008E7010008E7010008C0
:10008000E7010008E7010008E7010008E7010008B0
:10009000E7010008E7010008E7010008E7010008A0
:1000A000E7010008E7010008E7010008E701000890
:1000B000251A0008E7010008E7010008E701000829
:1000C000E7010008E7010008E7010008E701000870
:1000D000E7010008D91F0008E7010008E701000850
:1000E000E7010008E7010008E7010008E701000850
:1000F000E7010008E7010008E7010008E701000840
:10010000E7010008E7010008E7010008E70100082F
:10011000E7010008E7010008E7010008E70100081F
:10012000E7010008E7010008E7010008E70100080F
:1001300000F002F800F03AF80AA090E8000C8244BF
:100140008344AAF10107DA4501D100F02FF8AFF29C
:10015000090EBAE80F0013F0010F18BFFB1A43F0A5
:1001600001031847C01F0000E01F0000103A24BF21
:1001700078C878C1FAD8520724BF30C830C144BF0C
:1001800004680C607047000000230024002500264E
:10019000103A28BF78C1FBD8520728BF30C148BFEA
:1001A0000B6070471FB51FBD10B510BD00F0B8F84B
:1001B0001146FFF7F7FF01F065FF00F0EAF803B41E
:1001C000FFF7F2FF03BC01F01EFF00000948804763
:1001D00009480047FEE7FEE7FEE7FEE7FEE7FEE729
:1001E000FEE7FEE7FEE7FEE704480549054A064B41
:1001F00070470000DD1900083101000818020020D6
:10020000180800201804002018040020704700007F
:100210000FB4044910B503AA029800F02BF810BCE3
:100220005DF814FB100000204FF000020429C0F01C
:10023000128010F0030C00F03180CCF1040CBCF102
:10024000020F18BF00F8012BA8BF20F8022BA1EB6A
:100250000C0100F023B85FEAC17C24BF00F8012B39
:1002600000F8012B48BF00F8012B7047704770471A
:1002700070477047074B70B50D467B4400F039F866
:100280000446284600F048F810B14FF0FF3070BD2A
:10029000204670BDEF1D00004FF0000200B5134670
:1002A00094469646203922BFA0E80C50A0E80C5096
:1002B000B1F12001BFF4F7AF090728BFA0E80C5047
:1002C00048BF0CC05DF804EB890028BF40F8042B40
:1002D00008BF704748BF20F8022B11F0804F18BFAD
:1002E00000F8012B7047000001694A1C0261087880
:1002F000704700B58FB0CDE9013100210591054966
:100300007944CDE903101146684600F02EF80FB08D
:1003100000BD0000E5FFFFFF007B00F0800070479C
:10032000754600F03FF8AE4605006946534620F09A
:100330000700854618B020B5FFF756FFBDE82040FE
:100340004FF000064FF000074FF000084FF0000B91
:1003500021F00701AC46ACE8C009ACE8C009ACE844
:10036000C009ACE8C0098D4670472DE9F04106464A
:100370000024D6E90170F5688046304603E0414626
:10038000B847641C3046A8470028F8D12046BDE88D
:10039000F08110B50446AFF300802046BDE8104060
:1003A000FFF70DBF00487047B4010020FEE770471B
:1003B000174810B5816986B041F0100181618069EC
:1003C000012100F0100004900320CDE90210CDE9D6
:1003D0000001104C6946204600F02AF808210091DF
:1003E0006946204600F024F8042100910021019183
:1003F0006946204600F01CF800220321204600F048
:100400000DF901220C21204600F008F906B010BDBC
:10041000001002400008014031B500F005F9044623
:1004200000F002F90099001B8842F9D338BD0000A2
:100430002DE9F84FDFF8BC91002309F1040A0AF115
:10044000040B1C464FF00F080BF1040E01270A683D
:10045000A7403A40BA4272D1DFF89CC14D68A5EB83
:100460000C0665452BD00DDC032D34D005DC35B3EF
:10047000012D19D0022D2FD11BE0112D16D0122DD8
:100480002AD119E0B6F5881F19D006DCB6F5803FF1
:1004900015D0B6F5801F1FD111E0B6F5001F0ED0A4
:1004A000B6F5041F18D10AE0CB6815E0CB681B1D18
:1004B00012E0CB6808330FE0CB680C330CE08B689C
:1004C0002BB1012B4FF0080303D0476104E0042354
:1004D00002E0076100E00023FF2A01D8064601E0A0
:1004E00000F104064FEA840501D9A5F1200537681B
:1004F00008FA05FC27EA0C0703FA05F547EA0507A1
:1005000037604D68ED006ED53C4DAE6946F0010692
:10051000AE61AD6924F0030605F001050095384D84
:100520007719BE68A5072D0F08FA05FC26EA0C0608
:10053000DFF8D0C0604503D14FF0000C25E052E059
:10054000DFF8C4C0604502D14FF0010C1DE0DFF8B8
:10055000BCC0604502D14FF0020C16E0DFF8B0C01D
:10056000604502D14FF0030C0FE0DFF8A8C06045F2
:1005700002D14FF0040C08E0DFF89CC0604502D1C6
:100580004FF0050C01E04FF0060C0CFA05FC4CEAAC
:10059000060CC7F808C04D68D9F80060ED034D4659
:1005A00001D5164300E096432E604D68DAF80060EE
:1005B000AD03554601D5164300E096432E604D68C5
:1005C000DBF80060ED025D4601D5164300E096437E
:1005D0002E604D68DEF80060AD02754601D5164309
:1005E00000E096432E60641C102CFFF42FAFBDE892
:1005F000F88F0000000401400000111000100240BC
:100600000000014000080140000C014000100140C2
:100610000014014000180140001C01400AB10161B2
:1006200070470904FBE700000148006870470000BC
:100630000400002002480168491C01607047000066
:1006400004000020074810B5016841F01001016066
:10065000052000F047F80F2000F006F800F015F82C
:10066000002010BD0020024010B5044600F00CF937
:100670004FF47A71B0FBF1F000F049FC0022214602
:10068000501E00F00FF8002010BD704700F01F0250
:10069000012191404009800000F1E020C0F80011E4
:1006A00070470000F0B40E4B1B68C3F30223C3F184
:1006B0000704042C00D904241D1D072D01D200239A
:1006C00000E0DB1E012606FA04F56D1E0D409D407C
:1006D0009E40761E164045EA0601F0BC01F095B832
:1006E0000CED00E0064A00F0070110684FF6FF032A
:1006F000184040EA01200349084310607047000099
:100700000CED00E00000FA052DE9F047DFF8688104
:1007100004460E46D8F8000000F00700B0420CD2A4
:10072000D8F8001021F007013143C8F80010D8F8BC
:10073000000000F00700B04273D120784F4F8007CF
:1007400005D57868A16820F0F0000843786020782B
:10075000C00755D06068012201280CD0022828D09B
:10076000022393FAA3F1B1FA81F141F02001490982
:1007700004D0396803E04FF40033F2E7796A93FA62
:10078000A3F3B3FA83F303F01F039A40114248D056
:10079000796821F0030101437960FFF745FF0546C1
:1007A000606841F2883101280CD00228894615D0B2
:1007B00022E04FF00073D4E7FFF736FF411B4945B5
:1007C00001D916E089467868C0F381000128F3D189
:1007D00016E0FFF729FF411B49450AD87868C0F3A6
:1007E00081000228F5D10BE0FFF71EFF411B4945B0
:1007F00002D90320BDE8F087786810F00C0FF3D120
:10080000D8F80010404601F00701B1420BD9016849
:1008100021F0070131430160006800F00700B04299
:1008200001D00120E6E72078400705D57868E16827
:1008300020F4E060084378602078000706D57868E7
:10084000216920F4605040EAC100786000F052F85D
:100850007968F02292FAA2F201F0F001B2FA82F283
:10086000D140074A515CC840064908600F20FFF795
:10087000FBFE0020BEE70000002002400010024006
:100880000C210008000000200148006870470000AB
:100890000000002008480949006849684FF4E062F8
:1008A00092FAA2F201F4E061B2FA82F2D140044A73
:1008B000515CC8407047000000000020001002405A
:1008C0001C21000808480949006849684FF4605233
:1008D00092FAA2F201F46051B2FA82F2D140044AD3
:1008E000515CC8407047000000000020001002402A
:1008F0001C21000810B519A085B00FC88DE80F00A5
:100900001AA01B4B0068049059681A4801F00C02A9
:10091000042A1DD0082A1BD14FF4701494FAA4F4B1
:1009200001F47012B4FA84F4E240C9031DF8022005
:1009300010D559684FF4003393FAA3F301F4003152
:10094000B3FA83F3D94004AB595CB0FBF1F05043E8
:1009500005B010BD08485043FAE700000203040543
:10096000060708090A0B0C0D0E0F101001020000FB
:100970000010024000127A0000093D002DE9F84FF6
:1009800004460078FE4EC0074FF001057FD0706826
:100990004FF40038C0F38100012807D07068C0F31D
:1009A000810002281BD17068C00318D598FAA8F0FE
:1009B000B0FA80F040F02000400901D0306800E03B
:1009C000706A98FAA8F1B1FA81F101F01F0105FAF5
:1009D00001F108425BD06068002879D057E0606878
:1009E000B0F5803F0BD010B1B0F5A02F11D030681A
:1009F00020F480303060306820F4802002E03068DD
:100A000040F480303060606818B3FFF70DFE074691
:100A100009E0306840F480203060F0E7FFF704FE22
:100A2000C01B642870D898FAA8F0B0FA80F040F0A3
:100A30002000400901D0306800E0706A98FAA8F1FF
:100A4000B1FA81F101F01F0105FA01F10842E5D088
:100A50001DE0FFF7E9FD074604E0FFF7E5FDC01BD9
:100A60006428DFD898FAA8F0B0FA80F040F02000AF
:100A7000400901D0306800E0706A98FAA8F1B1FA34
:100A800081F101F01F0105FA01F10842E5D120785A
:100A9000DFF8F08280074FF0000A4FF002075AD5C6
:100AA00070684FF0F80B10F00C0F07D07068C0F3AF
:100AB000810002281CD17068C00319D497FAA7F0EE
:100AC000B0FA80F040F02000400902D0306801E028
:100AD0008AE0706A97FAA7F1B1FA81F101F01F017B
:100AE00005FA01F108422BD0206901287CD127E0CA
:100AF000206988B395FAA5F0B0FA80F048F8205044
:100B0000FFF792FD814606E04DE1FFF78DFDA0EB7A
:100B10000900022886D897FAA7F0B0FA80F040F0D2
:100B20002000400901D0306800E0706A97FAA7F110
:100B3000B1FA81F101F01F0105FA01F10842E4D098
:100B400030689BFAABF220F0F8016069B2FA82F2E9
:100B500090400143316025E0FFE795FAA5F1B1FA35
:100B600081F148F821A0FFF75FFD814605E0FFF71E
:100B70005BFDA0EB09000228CCD897FAA7F0B0FAE9
:100B800080F040F02000400901D0306800E0706A39
:100B900097FAA7F1B1FA81F101F01F0105FA01F10D
:100BA0000842E4D1207800076DD5A069B8B395FA62
:100BB000A5F0B0FA80F008EB8000C0F88054FFF791
:100BC00033FD814605E0FFF72FFDA0EB0900022869
:100BD000A0D897FAA7F0B0FA80F040F06000B5EB2B
:100BE000501F02D130680CE063E197FAA7F0B0FA29
:100BF00080F040F06000B7EB501F01D1306A00E098
:100C0000706A97FAA7F1B1FA81F101F01F0105FAB4
:100C100001F21042D7D00120FFF7FEFB33E0FFE7DF
:100C200095FAA5F1B1FA81F108EB8101C1F880A430
:100C3000FFF7FAFC814605E0FFF7F6FCA0EB0900A0
:100C4000022899D897FAA7F0B0FA80F040F0600037
:100C5000B5EB501F01D130680BE097FAA7F0B0FA5E
:100C600080F040F06000B7EB501F01D1306A00E027
:100C7000706A97FAA7F1B1FA81F101F01F0105FA44
:100C800001F21042D8D12078400763D5F06940F0D6
:100C90008050F061F069DFF8F0B000F08050009013
:100CA000DBF8001041F48071CBF80010FFF7BCFCBA
:100CB000814605E0FFF7B8FCA0EB0900642872D874
:100CC000DBF80000C005F5D5E06801280AD008B1BE
:100CD000052813D0306A20F001003062306A20F01D
:100CE000040002E0306A40F001003062E06841F246
:100CF000883B80B3FFF798FC81460AE0306A40F0F9
:100D000004003062EEE7FFF78FFCA0EB09015945C4
:100D100049D897FAA7F0B0FA80F040F04000B5EB60
:100D2000501F01D130680BE097FAA7F0B0FA80F0BD
:100D300040F04000B7EB501F01D1306A00E0706A0C
:100D400097FAA7F1B1FA81F101F01F0205FA02F159
:100D50000842D8D033E0FFE7FFF766FC814605E0A4
:100D6000FFF762FCA0EB090159451CD897FAA7F0E0
:100D7000B0FA80F040F04000B5EB501F08D105E01C
:100D800000100240000042420070004030680CE059
:100D900097FAA7F0B0FA80F040F04000B7EB501F90
:100DA00002D1306A01E08AE0706A97FAA7F1B1FADD
:100DB00081F101F01F0205FA02F10842D0D1E06989
:100DC00098B37168C1F38101022972D002284FF0F3
:100DD00080714FF0007B50460AD091FAA1F1B1FA30
:100DE00081F148F82100FFF71FFC04465F4669E0E7
:100DF0008A4691FAA1F1B1FA81F1C14648F8210081
:100E0000FFF712FCA84607465D4604E0FFF70CFC1E
:100E1000C01B022853D895FAA5F0B0FA80F040F034
:100E20002000400902D0306801E060E0706A95FA65
:100E3000A5F1B1FA81F101F01F0208FA02F10842AE
:100E4000E4D1206AB0F5803F05D17068A16820F434
:100E5000003008437060D4E908010843716821F448
:100E60007411084370609AFAAAF0B0FA80F047460D
:100E700049F82080FFF7D8FB044604E0FFF7D4FBD5
:100E8000001B02281BD895FAA5F0B0FA80F040F0BC
:100E90002000400901D0306800E0706A95FAA5F1A1
:100EA000B1FA81F101F01F0107FA01F10842E5D022
:100EB0001DE01EE0FFF7B8FB001B022802D903204B
:100EC000BDE8F88F97FAA7F0B0FA80F040F0200064
:100ED000400901D0306800E0706A97FAA7F1B1FAD2
:100EE00081F101F01F0105FA01F10842E2D1002071
:100EF000E6E70120E4E74FF0E0210428086903D089
:100F000020F004000861704740F00400FAE710B5D3
:100F1000401EB0F1807F01D3012010BD4FF0E024CE
:100F200060610F21601700F070FC0020A0610720B5
:100F30002061002010BD7047704710B5040003D039
:100F400094F8390010B107E0012010BD002084F8AA
:100F50003800204600F00CF8022084F83900211DEA
:100F6000206800F09BFD012084F83900002010BDAE
:100F700008B50068B0F1804F12D10A48C16941F04C
:100F80000101C161C069032200F00100009001214C
:100F90001C20FFF787FBBDE808401C20FFF776BB4D
:100FA00008BD0000001002400168CA6842F001025A
:100FB000CA600068016841F00101016000207047CB
:100FC000704770B50446006801694FF00005C943D9
:100FD000890715D4C168C943890711D4E91E016185
:100FE00001202076206880698007204602D0FFF724
:100FF000E7FF04E000F098F8204600F04DF9257670
:1010000020680169C943490717D4C168C943490722
:1010100013D46FF0040101610220207620688069FA
:1010200010F4407F204602D0FFF7CAFF04E000F032
:101030007BF8204600F030F9257620680169C94325
:10104000090716D4C168C943090712D46FF0080113
:101050000161042020762068C0698007204602D004
:10106000FFF7AEFF04E000F05FF8204600F014F94F
:10107000257620680169C943C90617D4C168C943E8
:10108000C90613D46FF01001016108202076206892
:10109000C06910F4407F204602D0FFF791FF04E0C2
:1010A00000F042F8204600F0F7F825762068016944
:1010B000C943C90708D1C168C943C90704D1891EFA
:1010C0000161204600F006F920680169C94309065C
:1010D00009D4C168C943090605D46FF080010161D4
:1010E0002046FFF728FF20680169C943490609D453
:1010F000C168C943490605D46FF04001016120462B
:1011000000F00CF920680169C94389060BD4C16855
:10111000C943890607D46FF0200101612046BDE86C
:101120007040FFF709BF70BD704770B5044690F876
:1011300038000D4601280DD0012684F838600220C1
:1011400084F8390042B1042A18D0082A2AD00C2A7F
:101150004DD139E0022070BD206800F0EDFC206820
:10116000816941F0080181612068816921F00401F1
:101170008161206881692A69114311E0206800F0CB
:101180000BFD2068816941F40061816120688169FB
:1011900021F480618161206881692A6941EA022124
:1011A000816124E0206800F02DFD2068C16941F0D4
:1011B0000801C1612068C16921F00401C161206892
:1011C000C1692A69114311E0206800F04FFD2068D1
:1011D000C16941F40061C1612068C16921F4806185
:1011E000C1612068C1692A6941EA0221C16184F8AC
:1011F0003960002084F8380070BD10B5040003D0B9
:1012000094F8390010B107E0012010BD002084F8E7
:101210003800204600F00CF8022084F83900211D27
:10122000206800F03BFC012084F83900002010BD4C
:1012300000B50068144985B0884223D11348C169BC
:1012400041F00201C161C16901F00201049110493C
:101250004A6822F4406242F400624A60816941F0C7
:10126000080181618069694600F00800049020202F
:101270000090022001900120029003200390054875
:10128000FFF7D6F805B000BD000400400010024092
:1012900000000140000C01407047000010B50446FA
:1012A0000068012200F03CFC08482168814202D01D
:1012B0000748814203D1486C40F4004048642068EC
:1012C000016841F001010160002010BD002C0140C7
:1012D000003401400C4910B588420CD10B49D1F8BB
:1012E000B40148B10020C1F8B401094C2078C828E5
:1012F00004D0401C207010BD0120F4E705A0FEF7CB
:1013000087FF0020F6E700002001002000002242B5
:101310001400002052656164790D0A00704770471F
:1013200090F83900704738B5044600680168C26813
:10133000C1F3000102F4807221B11AB1E16B41F0F6
:101340000101E1630168C1F34002416901F001015B
:1013500022B119B1E26B42F00402E2630268C2F307
:10136000800222B119B1E26B42F00202E26302682C
:10137000C2F3C00222B119B1E16B41F00801E1638F
:101380000168C068C1F3401100F0200019B110B12C
:10139000204600F099FC20680168C068C1F3C011C4
:1013A00000F0800019B110B1204600F099FD2168CD
:1013B0000868CA68C0F3801002F04002012568B1D5
:1013C00062B1CA68204622F04002CA6094F839101F
:1013D000322910D080F8395000F050F9E06B002825
:1013E00008D0206801684068009084F83950204691
:1013F000FFF795FF38BD222180F83910ECE770B572
:10140000040004D094F83900002510B106E0012052
:1014100070BD84F83850204600F020F8022084F88F
:1014200039002068C16821F40051C160204600F0F5
:101430009FFC2068016921F49041016120684169A5
:1014400021F02A0141612068C16841F40051C16066
:10145000E563012084F83900002070BD10B50068F4
:101460001E4986B0884236D11D48816941F0040189
:101470008161816901F004010491816941F4804135
:101480008161816901F480410491816941F0010128
:1014900081618069134C00F0010004904FF40070EA
:1014A00000900220019001200290032003906946E1
:1014B0002046FEF7BDFF21150091002101916946EC
:1014C0002046FEF7B5FF2520FFF7E0F8032211467E
:1014D0002520FFF7E7F806B010BD000000380140F6
:1014E000001002400008014090F83930012B01D073
:1014F000122B2BD131B32AB390F83830012B25D0E1
:10150000012380F8383081628285C2850021C16361
:1015100090F83920122A17D0222280F8392080F83A
:1015200038100168CA6842F48072CA6001684A696A
:1015300042F001024A610068C16841F02001C160C7
:1015400000207047012070473222E6E702207047F2
:1015500030B400681449884223D1144A50880104E9
:1015600017D402F10101440409784FF0000304D5B7
:101570000A290DD140F4004011E00D290DD0C0F32F
:101580000D040B4D401C80B229555080C72800D94E
:101590005380107830BC00F049B940F4804050804E
:1015A000F7E730BC70470000003801400C00002015
:1015B000180000202DE9F047044690F839009946BC
:1015C0000D46012801D0222856D125B31AB394F82C
:1015D0003800012850D0012684F838600027E763DE
:1015E00094F83900222819D0122084F83900A284F6
:1015F000E2844FF48058E08C4B46401EE084A068A3
:101600004FF0000240454FF08001204613D100F01A
:101610009AFC08BB04E00120BDE8F0873220E4E733
:1016200028882168C0F308004860206908B16D1C53
:1016300008E0AD1C06E000F086FC68B9216815F8EA
:10164000010B4860E08C0028D5D14B460022402198
:10165000204600F078FC08B10320DDE794F839005B
:10166000322805D084F8396084F838700020D3E738
:10167000222084F83900F7E70220CDE77047FEE723
:1016800030B50F4885B0816941F0100181618069F2
:101690004FF4005400F0100004900120CDE9004008
:1016A00002900320074D039069462846FEF7C0FECE
:1016B000012221462846FEF7B1FF05B030BD0000EB
:1016C0000010024000100140FEE70921B0FBF1F0DC
:1016D000401D00F0F3BA000070B541480078312891
:1016E0007CD1404CD4F88001002863D00020C4F89D
:1016F00080014FF4967000F091FC5520FFF7E5FF54
:101700004FF47A75284600F089FCD4F8800100284F
:1017100055D00020C4F88001642000F07FFCD4F88C
:10172000800100284DD00020C4F88001642000F022
:1017300075FCD4F88001002845D00021C4F8801140
:10174000642000F06BFCD4F88001A8B30021C4F839
:101750008011642000F062FCD4F8800168B300209E
:10176000C4F88001642000F059FCD4F8800170B303
:101770000020C4F880014FF4FA7000F04FFC822082
:10178000FFF7A3FF284600F049FCD4F8800118B306
:101790000020C4F88001C82000F040FCC821104897
:1017A000FEF742FD10A0FEF733FDBDE870400FA02C
:1017B000FEF72EBD01209AE707E009E00EE00120C8
:1017C000A8E70120B0E70121B8E70121BFE701E068
:1017D0000120C5E70120CCE70120DAE770BD000059
:1017E0001800002000002142300D0A004D6F766580
:1017F0006D656E74204F72646572203120497320CC
:10180000446F6E65210D0A0070470907090E002814
:1018100006DA00F00F0000F1E02080F8141D704798
:1018200000F1E02080F800147047000070B5104C03
:10183000608801041AD5C5B20EA0FEF7E9FC104974
:101840004FF47A732A4601F1C800FFF7B3FE0C4843
:10185000C83000680168C9434906FBD40020608095
:10186000FFF73AFFBDE8704000F00EB870BD000011
:101870000C0000204F726465723A0D0A00000000EF
:101880001800002070477047214910B509780020E2
:10189000322906D0332906D0342906D0352906D07E
:1018A00006E0022004E0032002E0042000E005201E
:1018B000022811D0032818D004281FD0052826D1CB
:1018C000B420FFF702FFC8211148FEF7ADFC11A0BC
:1018D000BDE81040FEF79CBC7820FFF7F6FEC8215B
:1018E0000B48FEF7A1FC13A0F2E70020FFF7EDFE86
:1018F000C8210748FEF798FC16A0E9E75A20FFF731
:10190000E4FEC8210248FEF78FFC1AA0E0E710BDF4
:1019100018000020536572766F20546573742D4F44
:1019200072646572203520497320446F6E65210D05
:101930000A000000536572766F20546573742D4F52
:1019400072646572203220497320446F6E65210DE8
:101950000A000000536572766F20546573742D4F32
:1019600072646572203320497320446F6E65210DC7
:101970000A000000536572766F20546573742D4F12
:1019800072646572203420497320446F6E65210DA6
:101990000A00000030B58FB0012100910225090432
:1019A00000240795CDE90114CDE908106846FEF73B
:1019B000E5FF00B1FEE70F20CDE90A054FF4806096
:1019C000CDE90C4002210AA80E94FEF79DFE0028E6
:1019D00000D0FEE70FB030BDFEF72CBE0D48016809
:1019E00041F00101016041680B4A1140416001680A
:1019F0000A4A11400160016821F4802101604168B8
:101A000021F4FE0141604FF41F0181600449C003CD
:101A100008607047001002400000FFF8FFFFF6FE6C
:101A200008ED00E00148FFF7CCBA000020010020DB
:101A3000084A10B54FF08043C2E900310021C2E9E5
:101A4000021010461161FFF778FABDE81040014816
:101A5000FFF7AABA2001002010B50F4A00240D4B51
:101A6000C2E902401461C2E900311046FFF7C5FB2C
:101A7000094860213C300422C0E90014014684601A
:101A80003C38FFF752FBBDE8104004210248FFF745
:101A900005BC0000000400405C010020F0B50268B5
:101AA0001A4D1B4E1B4FDFF870C01C4B4FF0804E81
:101AB000A84209D0984207D0704505D0B04203D063
:101AC000B84201D0604503D122F070044A68224335
:101AD000A84209D0984207D0704505D0B04203D043
:101AE000B84201D0604503D122F44074CA68224351
:101AF00002608A68C2620A688262A84201D0984283
:101B000001D10969016301214161F0BD002C01404F
:101B10000004004000080040000C00400034014078
:101B200010B50123046A8B409C430462036A8A4017
:101B30001343036210BD0000F0B5026A22F00102F7
:101B40000262026A43688469114E24F073050C68CE
:101B5000104F2C4322F002058A682A43B04201D07C
:101B6000B84205D122F00805CA682A4322F00402CF
:101B7000B04201D0B84205D14D6923F440731D43F2
:101B80008B692B4343608461496841630262F0BD05
:101B9000002C014000340140F0B5026A22F010022E
:101BA0000262026A436884690D6824F4E64444EAE8
:101BB00005248D6822F0200242EA05120F4D104ED6
:101BC000A84201D0B04206D1CF6822F0800242EA9A
:101BD000071222F04002A84201D0B04207D14D695D
:101BE00023F4406343EA85038D6943EA8503436038
:101BF0008461496881630262F0BD0000002C0140ED
:101C000000340140F0B5026A22F480720262026A76
:101C10004368C46922F4007224F073050C68124E04
:101C20002C438D6842EA05220E4DA84201D0B042F5
:101C300006D1CF6822F4006242EA072222F48062D1
:101C4000A84201D0B04207D14D6923F4405343EA82
:101C500005138D6943EA05134360C4614968C16394
:101C60000262F0BD002C01400034014030B5026A30
:101C700022F480520262036A4268C4690D6824F447
:101C8000E64444EA05248D6823F4005343EA05330F
:101C9000084DA84202D0084DA84204D14D6922F453
:101CA000804242EA85124260C4614968016403626D
:101CB00030BD0000002C01400034014001490860A3
:101CC000704700003804004010B590F83910222900
:101CD00003D0322901D0022010BD8168B1F5805FA8
:101CE00011D00169002901681FD0496801F07F0304
:101CF000816A4A1C82620B70C18D491E0904090C5D
:101D0000C18518D02FE00269816A002A02685268F2
:101D100005D0D2B20A80816A491C8162ECE7C2F325
:101D200008020A80816A891CF7E74A68816A4B1CAD
:101D300083620A70E0E70168CA6822F02002CA6084
:101D400090F83910322910D00168CA6822F48072E4
:101D5000CA6001684A6922F001024A61012180F8E3
:101D60003910FFF7F5FB002010BD1221F7E7000046
:101D70002DE9F041044600680169E26821F4405110
:101D800011430161A1682069014360690143206832
:101D9000C26841F20C639A430A43C26020684169F9
:101DA000A26921F44071114341614C4920686426C5
:101DB000322788423CD1FEF785FD00EBC00101EBE4
:101DC000001061688900B0FBF1F5FEF77BFD00EBC8
:101DD000C00101EB00106168B8468900B0FBF1F06A
:101DE000B0FBF6F06FF01801484305EB800107EBFC
:101DF0000110B0FBF6F000F0F005FEF763FD00EB1C
:101E0000C00101EB001061688900B0FBF1F0B0FB8C
:101E1000F6F005EB0015FEF755FD00EBC00101EBF8
:101E2000001061688900B0FBF1F7FEF74BFD3BE065
:101E3000FEF730FD00EBC00101EB00106168890086
:101E4000B0FBF1F5FEF726FD00EBC00101EB001041
:101E50006168B8468900B0FBF1F0B0FBF6F06FF0B6
:101E60001801484305EB800107EB0110B0FBF6F0C9
:101E700000F0F005FEF70EFD00EBC00101EB0010D5
:101E800061688900B0FBF1F0B0FBF6F005EB0015DE
:101E9000FEF700FD00EBC00101EB00106168890056
:101EA000B0FBF1F7FEF7F6FC00EBC00101EB001010
:101EB00061688900B0FBF1F0B0FBF6F06FF018013B
:101EC000484307EB800108EB0110B0FBF6F02168F6
:101ED00000F00F0028448860BDE8F0810038014020
:101EE00090F83910122903D0322901D0022070470E
:101EF0008168B1F5805F016A0BD04A1C02620268FA
:101F000009785160C18C491E0904090CC1840ED0A6
:101F100017E009880268C1F30801516001690029CE
:101F2000016A02D0491C0162ECE7891CFBE70168E9
:101F3000CA6822F08002CA600068C16841F04001AE
:101F4000C160002070472DE9F0471D4690460F46BE
:101F50000446FEF769FB06465FEA08004FF00009F9
:101F60004FF0010808D030E0681C05D095B1FEF7AD
:101F70005BFB801BA8420DD82068006837EA000090
:101F8000F2D127E0681C20D025B1FEF74DFB801B65
:101F9000A8421AD92068C16821F08001C160206878
:101FA000C16821F02001C1602068C16821F48071FE
:101FB000C1602068416921F00101416184F83980E4
:101FC00084F838900320BDE8F0872068006837EA7D
:101FD0000000D7D00020F6E710B50848FFF7A3F9B6
:101FE0000648FFF79DF90128FAD101220449034868
:101FF000FFF77AFA0028F8D110BD0000E0000020B9
:102000000D000020FEE7704710B504460420FEF7DF
:1020100072FF0148046010BD0800002070B505463D
:1020200000244FF47A7603E0304600F005F8641C93
:10203000AC42F9D370BD000070B54FF0E02500212F
:102040006C69094AAB6912685043AA699A42FCD08C
:1020500002D2A3EB020302E0A4EB020633441944CC
:1020600013468142F1D370BD0800002004490A687C
:102070005206FCD5024AC1B2121D11607047000021
:1020800000380140FEF7DEFA4FF4E010FFF782FC63
:102090004820FFF7B9FF4FF4E13000F01BF8FFF7DD
:1020A000EFFAFEF785F941F61F44214640F69F708E
:1020B000FFF7BEFC2146C720FFF7CEFC8220FFF7CA
:1020C00004FB02A0FEF7A4F8FEE70000526561647D
:1020D000790D0A000B4910B5094AC1E9002000201A
:1020E0008860C860086188610C2048610846FFF775
:1020F00086F9BDE81040012203490248FFF7F4B910
:1021000000380140E00000200D0000200000000029
:102110000000000001020304060708090000000097
:102120000102030444210008000000201800000000
:102130006C0100085C210008180000200008000065
:102140008801000800A24A0400000000000000000E
:0C21500000000000000000000000000083
:0400000508000131BD
:00000001FF
